S00D00004C616220332E73726563B5
S11300000C945A000C946F000C946F000C946F00C5
S11300100C946F000C946F000C946F000C946F00A0
S11300200C946F000C946F000C946F000C946F0090
S11300300C946F000C946F000C946F000C946F0080
S11300400C946F000C946F000C946F000C946F0070
S11300500C946F000C946F000C946F000C946F0060
S11300600C946F000C946F000C946F000C946F0050
S11300700C946F000C946F000C946F000C946F0040
S11300800C946F000C946F000C946F000C946F0030
S11300900C946F000C946F000C946F000C946F0020
S11300A00C946F000C946F000C946F000C946F0010
S11300B00C946F0011241FBECFEFD8E0DEBFCDBF7C
S11300C011E0A0E0B1E0E2E0F2E002C005900D92A0
S11300D0A031B107D9F70E94F8000C94FF000C94EA
S11300E000001092C50087E68093C400E1ECF0E0C4
S11300F0808188618083E2ECF0E080818660808387
S11301008081808308958AB1806F8AB984B1807FA9
S113011084B98BB1806F8BB985B18F6085B908952F
S11301202FEF30E792E0215030409040E1F700C0DB
S113013000009091C00095FFFCCF8093C600089505
S1130140EF92FF920F931F93CF93DF9300E010E0A1
S113015044C08BB198012C5F3F4F41E050E07A01DD
S113016002C0EE0CFF1C2A95E2F79E2D9095892380
S11301708BB9C0E0D0E029C02FEF80E792E0215096
S113018080409040E1F700C00000F801EE0FFF1F2F
S1130190EE0FFF1FE050FF4FEC0FFD1F80810E9408
S11301A090002FEF83EC99E0215080409040E1F7DC
S11301B000C0000083B190E00C2E02C09595879595
S11301C00A94E2F780FFD8CF2196C430D10594F386
S11301D08BB1E82AEBB80F5F1F4F043011050CF404
S11301E0B8CFDF91CF911F910F91FF90EF900895B9
S11301F00E9471000E9483000E94A000FDCFF89429
S1050200FFCF2A
S11302023132334134353642373839422A30234485
S9030000FC
