S01700004763634170706C69636174696F6E322E737265635A
S11300000C945A000C9464000C9464000C946400E6
S11300100C9464000C9464000C9464000C946400CC
S11300200C9464000C9464000C9464000C946400BC
S11300300C9464000C9464000C9464000C946400AC
S11300400C9464000C9464000C9464000C9464009C
S11300500C9464000C9464000C9464000C9464008C
S11300600C9464000C9464000C9464000C9464007C
S11300700C9464000C9464000C9464000C9464006C
S11300800C9464000C9464000C9464000C9464005C
S11300900C9464000C9464000C9464000C9464004C
S11300A00C9464000C9464000C9464000C9464003C
S11300B00C94640011241FBECFEFD8E0DEBFCDBF87
S11300C00E9479000C94A1000C94000084B5826015
S11300D084BD85B5856085BD8BE987BD18BC84B1B9
S11300E0806284B984B18F7784B985B1806885B919
S11300F008950E94660088B5882319F085B180624E
S113010085B91F9908C098B587B5981720F488B5A4
S11301108F5F88BD08C01F9B06C088B5882319F06F
S113012088B5815088BDAA9BFECF85B3846085BB0A
S113013085B18F7D85B9A99BFECF85B3826085BBD0
S1090140DACFF894FFCFB2
S9030000FC
